:1000000012C021C020C01FC01EC01DC04AC01BC0DE
:100010001AC019C018C017C016C015C014C013C02C
:1000200012C011C010C011241FBECFE5D4E0DEBF46
:10003000CDBF20E0A0E6B0E001C01D92A136B2071E
:10004000E1F70BD052C0DCCF17BA8FEF84BB81BB76
:1000500091E098BB15BA82BB0895F6DF88E090E086
:1000600037D08FE43ED08DE03CD08AE03AD02FEFFD
:1000700084E39CE0215080409040E1F700C0000004
:1000800002D07894FFCF8EB588608EBD89B780612D
:1000900089BF8AE78BBD82E18ABD8EB584608EBD43
:1000A00008951F920F920FB60F9211248F93809193
:1000B00060008A3010F010926000809160008F5FC5
:1000C000809360008F910F900FBE0F901F90189536
:1000D00090BD89B988E18AB9579A599A8EE880BD4E
:0E00E00008955D9BFECF8CB90895F894FFCF74
:00000001FF
